:100000000C9448060C9470060C9470060C947006C0
:100010000C9470060C9470060C9470060C94700688
:100020000C9470060C9470060C94B80C0C94620D31
:100030000C94710C0C9470060C9470060C94700661
:100040000C9470170C9470060C94E0170C94BA176B
:100050000C9470060C9470060C9470060C94700648
:100060000C9428120C9470061112131415160A0B16
:100070000C0D0E0F00000000000000000003000047
:10008000000000000000F800000000000000000078
:10009000F80000000000000000007F0000000000E9
:1000A00000F01FE01F000000000000F01FE01F0034
:1000B0000000000000F003F00300FCF8C77FF8F137
:1000C00003FC0300FCF8C77FF8F101FC0000FFF916
:1000D000CF7FFEF301FC0000FFF9CF7FFEF301FCB0
:1000E0000000C439CE018EF3017F00000738CE3FF7
:1000F0008EF3011F00000738CE3F8EF3011F000072
:1001000007F8C70FFEC3031F0000C7F9CE01BEC327
:100110008F1F0000C7F9CE01BEC38F1F0000FF393B
:10012000CE7F8E839F0F0000FC38CE7F8E83FF0F23
:100130000000FC38CE7F8E83FF0F0000000000001F
:100140000000FE030000000000000000FE030000AD
:10015000000000000000FC010000000000000000A2
:10016000F0010000000000000000F0010000436FFB
:10017000756C64206E6F742066696E6420424D4514
:100180003238304932432073656E736F72210049F3
:100190006E697469616C697A696E672E2E2E0050E3
:1001A0004D20444154413A20000000FFFFFF0F0062
:1001B00000000001000008000000000100800B00AA
:1001C0000000600100800B000000600100800B0057
:1001D0000000600100800B000000600100800B0047
:1001E0000000600100800B000000600100800B0037
:1001F0000000600100800B000000000100800B0087
:100200000000000100000800000000FFFFFF0F00D9
:1002100000000000000000000000000000000000DE
:1002200000000000000000000000000000000000CE
:1002300000000000000000000000000000000000BE
:1002400000000000000000000000000000000000AE
:10025000000000000000000000000000000000009E
:1002600000C124708C73EF240221259012212125D6
:10027000022125701221271502213D901E21E1083F
:1002800002213D901221210900CF247012212F0953
:100290000253455249414C20444154413A200050B8
:1002A0004D312843463D31292C504D322E352843BF
:1002B000463D31292C504D31302843463D31292CC3
:1002C000504D312C504D322E352C504D31302C505C
:1002D0003E302E332C503E302E352C503E312E30B9
:1002E0002C503E322E352C503E352E302C503E3187
:1002F000302C54454D502C48554D2C50524553539D
:1003000000424C4520444154413A20000001020380
:1003100004054572726F7220696E2073656E6469A0
:100320006E6720626C652064617461004572726F53
:100330007220696E2073656E64696E6720736572E2
:1003400069616C2064617461005570646174696EE8
:1003500067206F6C65642E2E2E00E00003020304FC
:10036000030404060B00FE07FE08FF013E0281089D
:10037000BE200500A203210739A363500222079B78
:10038000B623B104230B2DAAA732289541A9002436
:100390000E4D9E2B5B2A4AB6254A658B00250E3DE5
:1003A000A26750125312294A222500260C3DA2476B
:1003B000AAD42A89142901270519B7632808CB9ED6
:1003C0002B29752B2909CB9E232B7529012A0A2D50
:1003D000AAAB52599A22002B0A2DA62B8C06298CE7
:1003E000002C08A29A634814002D058BAE632E06DC
:1003F00012A363082F0C559AB3166661166661083E
:10040000300C3DA267C9A42599B4640131093DA20D
:100410002B1A3B0D02320A3DA267C9C2AC6D1033E4
:100420000B3DA267C9C248D59205340C3DA22F935B
:1004300092523268D900350B3DA2E338A4A1962C24
:1004400000360C3DA267098724B3250B00370A3D0F
:10045000A263106BC51200380C3DA267C9B464C911
:10046000B46401390C3DA267C96CC910260B003A6F
:10047000082AA3638886003B09BA9A6388864401E8
:100480003C07BCA22F6A6C3D081DAA635007013EC1
:1004900008BCA2236C6A033F0B3DA267C9C2AC0E25
:1004A0004500400D3DA267C994214994211D024198
:1004B0000C3DA22B4BA2A4360C9916420D3DA26313
:1004C00048326D50326D5000430A3DA267C9C4B630
:1004D0006401440A3DA26348326F8302450B3DA28A
:1004E000E3180E49180E02460A3DA2E3180E4958B9
:1004F00004470B3DA267C9C468D39205480A3DA2D0
:1005000023B30D43660B490A3DA26390C24E83009C
:100510004A093DA2B351D392054B0C3DA2239392BD
:10052000929644952C4C083DA223EC71104D0C3D45
:10053000A2235B964449345B004E0B3DA2239B945F
:1005400044DA6C014F0A3DA267C9BC250B00500C70
:100550003DA26348326D50C22200510A459E67C9D0
:10056000BC54D600520C3DA26348326D50325B0041
:10057000530B3DA267C9D4554B160054093DA263E5
:1005800090C29E0055093DA223F32D5900560C3D03
:10059000A223B325A5240B2300570A3DA2237349A8
:1005A00094E416580B3DA223D3925AA5A605590AE6
:1005B0003DA223B325B5B0045A0A3DA26310B38E01
:1005C00083005B084A9F63E98B005C0CD59A234C3F
:1005D000C3344CC3340C5D08CA9E43E9CB005E08AB
:1005E0001DB22B4B6A015F060E9AE300600692BAB9
:1005F000230A61092DA267D04C8A12620C3DA22306
:100600000C8724B30D0A0063092DA267C9C47408BE
:10061000640A3DA2B33268B66408650A2DA267C9B0
:1006200086211D026609BCA24B89A6AC09670C3D58
:100630009A67D06CC910260B00680A3DA2230C876C
:1006400024730B6908BBA227945A066A094B9A2B9C
:10065000943A2D006B0B3DA2232C25A5A992056C85
:1006600007BBA243EA656D0C2DA263482A4AA22467
:100670004A016E092DA2233169B6006F092DA267C8
:10068000C96CC902700C3D9A634832DBA08421001A
:10069000710A3D9A67D06CC9101672092DA22331D8
:1006A00089450073092DA267500F0A007409BCA286
:1006B000278BA6AC2875092DA22373529400760BC4
:1006C0002DA223D39252924500770C2DA223499458
:1006D0004449942E00780A2DA2234B6A955A00793A
:1006E0000B3D9A23734B863059007A092DA263D0B3
:1006F000DA06017B0ADB9A2B895AB2A82D7C0649BF
:100700009FE3017D0BDB9A238BDA92A825027E06FC
:1007100015AEC7057F0500A203800500A203810571
:1007200000A20382071A9E275100830B5D9A4F0A8D
:100730006B5BD8490384081C9EA745490085060DBC
:10074000A223298609ABAA2759A20A008709ABAAC6
:100750002759922501880693BAA701890E46A267F8
:10076000585A345149949E92048A0C4DA2A7962D52
:1007700099BA6AC9028B0722A24789028C0E3DA250
:100780006750A2244A9452920D018D0500A2038E57
:100790000500A2038F0500A203900500A2039107A4
:1007A0001AB347490092071AB327510093089CB225
:1007B00027515A0094089CB2A745490095082DA6D8
:1007C000E7F0650196058BAE6397060EAEE30098E1
:1007D0000615BAC70599091EB263482A4B329A0B0F
:1007E00045A2A79623837A50009B0822A2234A148D
:1007F000009C0A2DA2A78B322459229D0500A2033A
:100800009E0500A2039F0B4DA2A79CD9925A5802A5
:10081000A00500A203A107B9A3231904A20D3D9EC0
:100820002B5B2A4A9464431401A30C45A247AA8473
:1008300053581B1400A40B2DA2234BA6245AB2001C
:10084000A50D3DA2234B2A83140D521801A6084979
:100850009F63488600A70F559E67C99248897A9181
:10086000922C5900A8068BBA2309A90C3DA2638DCE
:10087000142D51B26402AA0AB4AE6788A4641C02A3
:10088000AB0925A2279292A801AC071DA663100B05
:10089000AD060DAE6310AE0B35A6634D242599143D
:1008A00005AF058BBA63B009A4B24789A44401B16E
:1008B0000B35A22B8C06298C0601B208A3B6434B3C
:1008C0009201B308ABB2434BA405B40713BB67480E
:1008D00000B50E3D9A234AA2244AA264114300B6F1
:1008E0001045A267501225512A439444499404B7F5
:1008F0000612AB6308B8089B9A63191200B907A3E4
:10090000B643AA0CBA0AB4AE4789A4441D02BB0977
:1009100025A2236A89A404BC0F4EA243AD0D4958F9
:10092000891225591300BD0D4EA243AD0D49184E35
:1009300099160EBE104EA2430EA54AA284499428D1
:10094000C99A00BF0B3DA22B87B262962C00C00E45
:100950004DA2270DB3244A6AC3906901C10D4DA26F
:10096000AF982551521B864C0BC20E4DA22B4B72D9
:10097000244B6AC3906901C30D4DA2C7AD1225B5C2
:1009800061C8B400C40E4DA2A78E644994D48621D8
:10099000D302C50D4DA22B4BB24A4D1B864C0BC644
:1009A0000E3DA26750A2241A9252122503C70B4D86
:1009B0009A67C9C4B664AB01C80D4DA2278D8631B4
:1009C0001C92301C04C90C4DA2AF348CE19084E120
:1009D00020CA0E4DA22B4B92610C87240C0701CB31
:1009E0000C4DA2A73C8CE19084E120CC0B4DA227BA
:1009F0008D0629EC3408CD0A4DA2AF344861A741D9
:100A0000CE0C4DA22B4BE2410A9B0601CF0A4DA210
:100A1000A73C4861A741D00D3DA267AA4443524A72
:100A2000A26401D10C4DA2C7259B9444DA6C01D27B
:100A30000B4DA227CD96CC5BB200D30A4DA2AFB628
:100A400064DE9205D40C4DA22B4B7260C9DC92057A
:100A5000D50B4DA2C769C9BC250B00D60B4DA2A76B
:100A60000E2C99B76401D70A2DA6234B6A955A001C
:100A7000D80C3DA267C9A42599B46401D90A4DA236
:100A8000278D32DF9205DA0A4DA2AF94F9962C0039
:100A9000DB0B4DA22B4BE2CC5BB200DC0A4DA2A7D4
:100AA0009CF9962C00DD0B4DA2AF94D9925A5802B6
:100AB000DE0C3DA2231C924C1B943004DF0E4D9E95
:100AC0004B8A34298992CCA28400E00C45A22BCD1C
:100AD000814133294A00E10B45A2AF8E0C9A49515E
:100AE00002E20C45A22B4B7260D04C8A12E30B45FC
:100AF000A2C71D183493A204E40B3DA2A70E0C9AC2
:100B0000495102E50C45A22B4BB26CD04C8A12E63F
:100B10000B2DA267A92843920D01E70B3D9A67C9E7
:100B2000C47488B20CE80C45A227CD91251B8674AD
:100B300008E90C45A2AF8E2CD930A44300EA0D453C
:100B4000A22B4B7260C986211D02EB0C3DA2A70EA1
:100B50002CD930A44300EC09C3A2230BA59601EDC8
:100B600009C3A22B09A59601EE08C3A2A74D6A19D5
:100B7000EF09BBA223C9A49601F00C45A24753A3D9
:100B800041B3250B00F10A45A2C7393169B600F21D
:100B90000C45A227CD9125B3250B00F30B45A2AF41
:100BA0008E2C992D5900F40C45A22B4B7260C96C08
:100BB000C902F50B45A2C71D58325BB200F60B3DCA
:100BC000A2A70E2C992D5900F70A2DA62B07061D5A
:100BD0008800F80B2DA2678996644A1600F90B4528
:100BE000A227CD81CC495102FA0A45A2AF0E644E2C
:100BF0008A12FB0B45A22B4BE2CC495102FC0A3D69
:100C0000A2A79C39294A00FD0D559AAF0E646EC902
:100C100010260B00FE0D4D9A230C8724B30D4A18A5
:100C200002FF0C4D9AA79CB92543982C00000000A8
:100C30000000000000240027002A0000000000251A
:100C40000028002B000000000023002600290004DB
:100C50000404040404040402020202020203030363
:100C6000030303010204081020408001020408105D
:100C7000200102040810200000000800020100000A
:100C8000030407000000000000000000B02C922CBC
:100C900011241FBECFEFD8E0DEBFCDBF12E0A0E031
:100CA000B1E0E6E7F1E602C005900D92A43DB10780
:100CB000D9F726E0A4EDB2E001C01D92A23AB20736
:100CC000E1F716E0C7E4D6E004C02197FE010E94D8
:100CD0009330C634D107C9F70E94CC190C94AE30BA
:100CE0000C940000EF92FF920F931F93CF93DF932A
:100CF000DC01942F9770E1E0F0E0092E01C0EE0FC7
:100D00000A94EAF71E2FED01CF58DF4F8881823019
:100D100028F47E2F813019F410E001C070E050E01B
:100D2000487FD596ED90FC90D697ED91FC91119768
:100D30008089849FF001859FF00D1124E60FF11D3D
:100D4000EE0DFF1D01110CC02E0F8081872B812716
:100D500081932E13FACF1DC0770F110F2223C9F0F4
:100D60003081372B312730839F5F9770215091114D
:100D7000F3CFD9968C91D997E80FF11D88818230F5
:100D800020F4813021F011E002C011E0E7CF71E0E2
:100D9000E5CFDF91CF911F910F91FF90EF900895D4
:100DA0000F93DC01D8965C91D897D9963C9121306D
:100DB00089F4631708F050C0B8EF5B9F400D112411
:100DC000FC0122AD421708F047C001A8F2A9E02DAE
:100DD00021E041C0023019F4621B6F5F04C0033090
:100DE00011F4421B4F5FF8EF5F9F400D1124DC01AF
:100DF000DA965C91702F717000FD14C0451760F594
:100E0000260F261730F4631718F42FEF230F03C0B3
:100E100060E0631708F52223F9F0321708F4232F56
:100E2000261B13C06317C0F4240F241730F4451792
:100E300018F42FEF250F03C040E0451768F4222374
:100E400059F0521708F4252F241BDC01D196ED919F
:100E5000FC91D297072F09950F910895CF93DF93B7
:100E6000FC0127A9822F880F880F880F82AFA081ED
:100E7000B18150968C915097803208F08FE1880FA5
:100E8000880F880F81AF30AD932F990F990F990F6D
:100E900093AF51966C915197432F50E0420F511DE3
:100EA000C62FD0E0C417D50714F4262F231B94AF08
:100EB000492F38E0239F400D1124242F45AF30EFF8
:100EC00036AF54964D915C915597413F510508F4CA
:100ED00046AF56963C9137AFDF01A05CBF4F1C92E6
:100EE00011968C9311969C93ED5BFF4F2083DF91BD
:100EF000CF910895BF92CF92DF92EF92FF920F931E
:100F00001F93CF93DF9300D000D01F92CDB7DEB7F1
:100F10008C01DC01D796BC90D797D896DC90D897F7
:100F2000ED91FC91C188E12CF12CD801ED91FC915F
:100F300011978089D5964D915C91D6971C829D2DF5
:100F40009E0D9D838B83B8E08B9FC00111248E9DE5
:100F500090018F9D300D9E9D300D1124CA01820F8E
:100F6000931F9A838983D8011496ED91FC9115976C
:100F70009E012F5F3F4F41E06FE0C801099581E07E
:100F80008E0D8B1538F4BFEFEB1AFB0A8D2D8E0DED
:100F90008C1558F20F900F900F900F900F90DF91DB
:100FA000CF911F910F91FF90EF90DF90CF90BF9066
:100FB0000895FC016623D9F16A30C9F18589811150
:100FC00024C06C3F20F085E0858B61701AC0683FBB
:100FD00020F084E0858B637014C0603F20F083E0D4
:100FE000858B67700EC0603E20F082E0858B6F704D
:100FF00008C0603C20F081E0858B6F7102C070E01A
:101000001BC070E07787668715C08150858B6F7332
:101010002685378596E0220F331F9A95E1F7A901BF
:10102000462BBA0177876687811104C005C06FEF30
:101030007FEF02C06EEF7FEFCB010895662329F0AA
:101040006A3019F0862F90E008958FEF9FEF089592
:101050005091DA024091D902852F90E0242F30E0A0
:10106000541710F4805B9F4F821B930B089580915F
:10107000DA02E091D9028E1751F0EF5FE03508F007
:10108000E0E0F0E0E958FC4F808190E008958FEFB8
:101090009FEF08958091DA029091D902891769F043
:1010A0009F5F903508F090E0E92FF0E0E958FC4FA1
:1010B00080819093D90290E008958FEF9FEF08957B
:1010C0008091D8028111FCCF08958091D7028F5F63
:1010D000843408F080E09091D6029817E1F32FB79E
:1010E000F8949091D802992341F0E82FF0E0E35D65
:1010F000FC4F60838093D7021DC081E08093D802AB
:10110000609372031092710382E086BB80916F003E
:10111000826080936F00809180008F7380688093DD
:101120008000809184009091850040969093890082
:10113000809388002FBF81E090E008950895E091AA
:10114000440480914304E81730F4F0E0EB5BFB4F7C
:10115000808190E008958FEF9FEF0895909144046F
:1011600080914304981750F4E92FF0E0EB5BFB4FBC
:10117000208130E09F5F9093440402C02FEF3FEF47
:10118000C90108958091430490E020914404821B9A
:1011900091090895CF92DF92EF92FF920F931F93E0
:1011A000CF93DF936C01EB017B01E40EF51E00E0B1
:1011B00010E0CE15DF0561F06991D601ED91FC914B
:1011C0000190F081E02DC6010995080F191FF1CF9C
:1011D000C801DF91CF911F910F91FF90EF90DF90A9
:1011E000CF900895EF92FF921F93CF93DF93EC017E
:1011F000162F7A010E94A61360E4CE010E94B0135C
:10120000E885F9859701412F67E1CE010995CE0167
:10121000DF91CF911F91FF90EF900C949C13EF9270
:10122000FF921F93CF93DF9300D0CDB7DEB77C0141
:10123000142F673128F4653140F4643149F141C01D
:10124000673191F06A3170F03CC00E94A61360E0F3
:10125000C7010E94B013612FC7010E94B013C701DC
:101260000E949C1381E02EC0A901193160F068E151
:10127000C70129833A830E94F208185129813A81D3
:10128000285E3F4FF1CF612FC7010E94F208EACFDD
:10129000DC0152968C9152978F3F19F488E7529651
:1012A0008C93D7011896ED91FC911997412F64E129
:1012B000C7010F900F90DF91CF911F91FF90EF909A
:1012C000099480E00F900F90DF91CF911F91FF90D4
:1012D000EF900895FC01A081B18150969C9147A99F
:1012E000949FA001112483E0440F551F8A95E1F7D4
:1012F00060E070E085A996A90C94A730CF92DF92A8
:10130000EF92FF920F931F93CF93DF937C01262FD1
:10131000972F8A018091F803882391F0C62FD72F49
:101320006E01C40ED51ECC15DD0571F06991D70193
:10133000ED91FC910190F081E02DC7010995F3CF6B
:10134000642F822F0E945613C801DF91CF911F9105
:101350000F91FF90EF90DF90CF900895CF93DF93A0
:101360001F92CDB7DEB769832091F8032223D1F015
:1013700020911B04203240F021E030E0FC01338357
:10138000228380E090E015C08091F903E82FF0E01F
:10139000E650FC4F998190838F5F8093F90380938F
:1013A0001B0405C061E0CE0101960E94561381E046
:1013B00090E00F90DF91CF910895FC01962F683156
:1013C000F1F0B901993150F4943169F0973189F510
:1013D00050E082E095E00E947E090FC0993131F122
:1013E000903259F026C01092440410924304109297
:1013F000F90310921B040E947E1381E00895A081DE
:10140000B1811D968C91843018F08CE08093B800E7
:10141000828990E09595879591E09093F803809369
:101420001A041092F90310921B04E7CF0E94F70FE1
:10143000E4CF80E008951F93CF93DF93EC01962FC4
:10144000642F9C3268F49A3208F052C0983281F0CE
:101450009932C9F570E080E090E00E942A1748C0F8
:101460009D32B1F080F184EB890F8230D8F02BC02F
:101470006B9610E089918F3F39F0103110F461E0E4
:1014800001C062E00E94E3161F5F163199F730C079
:10149000433018F082E090E002C085E090E00E94C6
:1014A0001F1726C09F73C90FD11D411107C061E0EE
:1014B0008B8D0E94E31660E08B8D10C062E08B8DF7
:1014C0000E94E31615C09034A8F09F73FE01E90F47
:1014D000F11D838D8F3F61F0903118F40E94B31697
:1014E00007C00E948A1621E0892B09F420E02E8B88
:1014F00081E001C080E0DF91CF911F9108950F93AB
:101500001F93CF93DF93EC018C010C5F1F4FFC0105
:10151000E958FF4F0190F081E02DC80109958E3FF9
:101520002FEF920780F4FE01E658FF4FC758DF4FB8
:101530009C0140816881C8010E94BF13288190E00E
:10154000820F911D888381E090E0DF91CF911F9100
:101550000F910895213039F020F0223031F4861BAC
:101560000895860F0895841B0895840F08952130EF
:1015700039F020F0223031F4841B0895840F08954F
:10158000860F0895861B0895DC0118964C911897D4
:10159000ED91FC911197249130E0042E02C0359515
:1015A00027950A94E2F7862F840F883010F4E22FF3
:1015B0000EC031961196FC93EE939491E92F98E02A
:1015C000941B01C0EE0F9A95EAF7E22B885018960B
:1015D0008C9381E090E001C0880F6A95EAF7815012
:1015E0008E230895DC011696ED91FC91179720E06B
:1015F00030E040E069E10994DC011696ED91FC9140
:10160000179720E030E040E068E109949A01DC019E
:101610001696ED91FC911797462F67E10994462F96
:10162000DC011696ED91FC91179720E030E066E121
:101630000994462FDC011696ED91FC91179720E056
:1016400030E065E109941F93CF93DF93EC010E9492
:101650007A0718AD8FA9180FE881F98181891817C9
:1016600050F0EC81FD8120E030E040E060E1CE010F
:10167000099580E012C0FE01EE58FF4F808188235B
:1016800019F0CE010E946A0918AFEBA9FCA90190DC
:10169000F081E02DCE01099581E0DF91CF911F917E
:1016A0000895CF93DF93EC01FC01EE58FF4F80814A
:1016B000882319F0CE010E946A0918AEEBA9FCA993
:1016C0000190F081E02DCE01DF91CF9109940F932D
:1016D000FC01EE5BFF4F308131965081451728F4B5
:1016E000301730F0041720F010C03017D8F30DC0B9
:1016F000FC01E05CFF4F308131968081681738F43F
:10170000321740F081E0261730F080E004C0321735
:10171000C8F3FBCF81E00F9108950F93DC01D396BE
:10172000ED91FC91D4970280F381E02D09950F9102
:1017300008955F926F927F928F929F92AF92BF9225
:10174000CF92DF92EF92FF920F931F93CF93DF938D
:101750005C01F62E642EEC01C85BDF4F1C81DD803E
:101760004C0181E7880E911CEE80E11ACE2CFE140C
:1017700008F4CF2C5B800C85202F4D2D612F8A81A2
:101780000E94AA0A782E202F4D2D612F852D0E94B0
:10179000B70A482F662011F09A8504C099859111E7
:1017A0000AC09B85F4019083CC2029F02C2D672D55
:1017B000C5010E948D0BFE1420F0FE18D39410E09A
:1017C000D3CF1F0D1C83DD82DF91CF911F910F912D
:1017D000FF90EF90DF90CF90BF90AF909F908F9051
:1017E0007F906F905F900895DC011A96ED91FC91C7
:1017F0001B9720E030E00994EF92FF920F931F9324
:10180000CF93DF931F92CDB7DEB77C018B01D80158
:101810006C916731E1F078F46531A0F1F801418114
:101820004983D7011696ED91FC91179720E030E09F
:10183000C701099524C06A31A8F06E3F19F5F80177
:101840004181498369E2C7010E94F40B18C0F80185
:1018500081818983AE014F5F5F4F61E0C7010E94C4
:10186000060B0DC00F5F1F4FD7011696ED91FC912F
:10187000179720E030E040E0C7010995C8CF0E5F20
:101880001F4FC5CF0F90DF91CF911F910F91FF9008
:10189000EF900895FC012081318182819381281786
:1018A000390719F0822F0C94B3160895CF93DF9364
:1018B000EC019CB59F7D9CBD9CB5937F9CBD9CB568
:1018C0009C7F9CBD9DB591609DBD8A810E94B31691
:1018D0008C899D89DF91CF910C941F1760E00C9447
:1018E000560C1F920F920FB60F9211242F938F93C5
:1018F0009F93EF93FF9380916F008B7F80936F0096
:10190000809181008F7B809381008091DB02209108
:101910007603205890917503893020F49695922B88
:101920008F5FFACF909375038091DA028F5F8035D5
:1019300008F080E02091D902821739F0E82FF0E01A
:10194000E958FC4F90838093DA021092DB02809179
:1019500081008F7B8093810010927603FF91EF913D
:101960009F918F912F910F900FBE0F901F90189500
:101970001F920F920FB60F9211242F933F934F9304
:101980005F936F937F938F939F93AF93BF93EF93E7
:10199000FF9380918600909187004091760320917B
:1019A0008100442331F02F7B209381001092760335
:1019B00006C020642093810020E8209376033091B4
:1019C000DB02311125C041116CC02091DC02309145
:1019D000DD02280F391F30938B0020938A0024E00A
:1019E00026BB20916F00246020936F002091D402C9
:1019F0003091D502820F931F36952795820F931F42
:101A0000909374038093730381E08093DB0249C059
:101A100040917303509174036091D4027091D50288
:101A2000DB01A095B09520917503E0917603841BAE
:101A3000950BA817B90768F126952E2B460F571F4F
:101A40003F5F861B970B3930A0F32093750380917D
:101A50006F008B7F80936F008091DA028F5F8035FB
:101A600008F080E09091D902891749F0E82FF0E062
:101A700090917503E958FC4F90838093DA0280912E
:101A800081008F7B80938100109276031092DB029D
:101A900008C02093750350937403409373033093ED
:101AA000DB02FF91EF91BF91AF919F918F917F9159
:101AB0006F915F914F913F912F910F900FBE0F90BB
:101AC0001F9018951F920F920FB60F9211242F930B
:101AD0003F934F935F936F937F938F939F93EF9376
:101AE000FF932091D80260917203809188009091B9
:101AF00089004091D4025091D502309171032A306F
:101B0000E8F4840F951F293019F0762F717001C009
:101B100071E066952F5F731791F330918000772302
:101B200011F0306C02C03F733068309380007093C6
:101B30007103609372032093D80213C03091D702CF
:101B4000E091D6023E131FC02A3081F42BE020938F
:101B5000D8022091000130910101420F531F840FE0
:101B6000951F909389008093880039C01092D80205
:101B7000809180008F738093800080916F008D7FB3
:101B800080936F002CC0EF5FE43408F0E0E0E09356
:101B9000D602F0E0E35DFC4F308130937203109287
:101BA000710331E03093D802309180003F73306888
:101BB0003093800040910001509101012A3029F4B6
:101BC0002091D4023091D502C8CF809184009091A9
:101BD0008500480F591F5093890040938800FF915A
:101BE000EF919F918F917F916F915F914F913F9175
:101BF0002F910F900FBE0F901F9018958EBD000073
:101C00000DB407FEFDCF8EB508951F93CF93DF93DC
:101C1000EC010E946E0C81EE0E94FE0D182F61E017
:101C2000CE010E94560C812FDF91CF911F91089514
:101C3000EF92FF921F93CF93DF9300D0CDB7DEB723
:101C40007C014A8369830E946E0C6981862F8F71A3
:101C500080620E94FE0D182F4A81842F0E94FE0D83
:101C600061E0C7010E94560C812F0F900F90DF9109
:101C7000CF911F91FF90EF900895CF92DF92EF9256
:101C8000FF920F931F93CF93DF9300D01F92CDB796
:101C9000DEB77C01142F2A835B8369830E946E0C5C
:101CA0006981862F8F7180620E94FE0D082FC12EE0
:101CB0005B81D52E2A81120F1C1531F0F60181911E
:101CC0006F010E94FE0DF8CF61E0C7010E94560C23
:101CD000802F0F900F900F90DF91CF911F910F9158
:101CE000FF90EF90DF90CF900895EF92FF921F93B7
:101CF000CF93DF931F92CDB7DEB77C0169830E943B
:101D00006E0C6981862F8F710E94FE0D8FEF0E94ED
:101D1000FE0D182F61E0C7010E94560C812F0F9015
:101D2000DF91CF911F91FF90EF900895EF92FF9276
:101D30000F931F93CF938C017B0166E00E94750E79
:101D4000C82FC77D82E0E816F10431F4C0628BE948
:101D500090E0A0E0B0E00DC0EA94EF2829F085E51E
:101D600090E0A0E0B0E005C0C86081E490E0A0E0B1
:101D7000B0E0F801808B918BA28BB38B4C2F66E087
:101D8000C8010E94180E66E0C8010E94750E91E01D
:101D90008C1390E0892FCF911F910F91FF90EF90BE
:101DA0000895CF93DF93EC0160E00E94750E81FDF2
:101DB0000EC0482F426060E0CE010E94180E65E020
:101DC00070E080E090E0DF91CF910C942A17DF91D2
:101DD000CF910895CF93DF93FB01A9E2B3E02D9358
:101DE0003D934D935C931397208131E0320F308304
:101DF000EC01C20FD11D13962C91139728832081DB
:101E000031E0320F3083EC01C20FD11D12962C91BC
:101E100012972883208131E0320F3083EC01C20F0A
:101E2000D11D11962C9111972883208131E0320F1A
:101E30003083FC01E20FF11D2C912083DF91CF91C3
:101E400008950F931F930E9464176093CE057093BB
:101E5000CF058093D0059093D105E091C605F09110
:101E6000C7050680F781E02D86EC95E0099597FF80
:101E70001FC00E9464170091CE051091CF052091DC
:101E8000D0053091D105DC01CB01801B910BA20B59
:101E9000B30B0091CA051091CB052091CC05309170
:101EA000CD0580179107A207B307B8F28FEF9FEF18
:101EB0001F910F91089522E00C947718462F50E05F
:101EC00060E070E02AE00C942E18CF93DF93AB0112
:101ED000BC0122E085E694E00E947718EC0185E6DB
:101EE00094E00E9459198C0F9D1FDF91CF910895A6
:101EF000CF92DF92EF92FF920F931F93CF93DF93D6
:101F00006B01770FEE08FF08F7FE1BC0EC016DE2D6
:101F10000E9412188C0144275527BA014C195D09FB
:101F20006E097F092AE0CE010E942E18800F911FB2
:101F3000DF91CF911F910F91FF90EF90DF90CF90A5
:101F400008952AE0B701A601DF91CF911F910F916B
:101F5000FF90EF90DF90CF900C942E189091420458
:101F60009111FCCF813208F080E291E0909342041D
:101F7000909341042FEF2093400410923F04280FC8
:101F800020933E0490933D0490913D049C6E909369
:101F90003D0490913C04913061F410923C04909186
:101FA0003D049093BB009091BC0093FDF8CF95EC5D
:101FB00001C095EE9093BC00909142049130E1F302
:101FC00090913F04981710F480913F04ACE1B4E085
:101FD00025E434E0F9019E2F921B981718F49D9187
:101FE0009193F9CF10924404809343040895209173
:101FF0001B0490911A04213208F04AC080914204D7
:102000008111FCCF32E03093420431E0309341043F
:102010003FEF3093400410923F0420933E04AAEF18
:10202000B3E04CE154E0FA013E2F341B321718F4B0
:102030003D913193F9CF10923D0420913D04990FC9
:10204000922B90933D0490913C04913061F4109256
:102050003C0490913D049093BB009091BC0093FD93
:10206000F8CF95EC01C095EE9093BC00909142049E
:102070009230E1F3909140049F3F79F080914004C9
:10208000803241F080914004803331F084E005C01B
:1020900081E003C082E001C083E01092F903109256
:1020A0001B041092F8030895682F82E095E00C94C9
:1020B000AE09CF93C62F91E09093F80396E79093E3
:1020C0001A041092F90310921B04682F82E095E025
:1020D0000E94AE096C2F82E095E00E94AE09CF917C
:1020E0000C94F70FCF92DF92EF92FF920F931F9312
:1020F000CF93DF93C82FF62E6901E090C005182F0B
:10210000140F01E0060F212F462F682F8FE495E072
:102110000E94670B882321F1D1E0C117F9F0F60185
:1021200084918D2319F0E092C00509C08091BF050C
:1021300081110DC081E0E11080E08093C00500E0D6
:1021400021E04F2D6C2F8FE495E00E948D0BCF5F27
:10215000DD0F19F7FFEFCF1ADF0ADECFE092C005DF
:10216000DF91CF911F910F91FF90EF90DF90CF9073
:102170000895833008F081E08093C0050895E82F2A
:10218000F0E0E65AFC4F849190E0982F8827319632
:10219000E4918E0F911D089560E083E395E00E9425
:1021A0004A0C60E083E395E00E94750E482F4D7F56
:1021B00060E083E395E00C94180E80915D0120E4CB
:1021C000829FC001112480937C0080917A008064FA
:1021D00080937A0080917A0086FDFCCF8091780010
:1021E0002091790090E0922B08950F93CF93DF9385
:1021F000C82FD82FD60F0D2F20E8482F6EE78FE479
:1022000095E00E94670B882361F0CD1751F000E044
:1022100022E04C2F6EE78FE495E00E948D0BCF5F9C
:10222000F4CFDF91CF910F910895FF920F931F93F9
:10223000CF93DF93C82FD62F109264058A01F12C1B
:10224000F80161918F01E0915105F09152058FE401
:1022500095E009958F3FFFEF9F07E9F08E3F2FEF45
:10226000920771F39C014D2F6C2F8FE495E00E9433
:10227000BF132091A305213049F030F0223041F006
:10228000233039F4D81B05C0C80F03C0D80F01C0D4
:10229000C81BF80ED5CF8F2DDF91CF911F910F91D5
:1022A000FF900895FC01918D828D981761F0828DC9
:1022B000DF01A80FB11D5D968C91928D9F5F9F737A
:1022C000928F90E008958FEF9FEF0895FC01918D1C
:1022D000828D981731F0828DE80FF11D858D90E089
:1022E00008958FEF9FEF0895FC01918D228D892F26
:1022F00090E0805C9F4F821B91098F73992708950E
:1023000080E090E0892B29F00E946F1681110C94D7
:102310000000089585ED8093BC008091BC0084FD91
:10232000FCCF10924204089580E00895FC01E35927
:10233000FF4F80818F5F089580E00895FC01848DB8
:10234000DF01A80FB11DA35ABF4F2C91848D90E0DF
:1023500001968F739927848FA689B7892C93A089BA
:10236000B1898C9180648C93938D848D981306C071
:102370000288F389E02D80818F7D80830895EF921C
:10238000FF920F931F93CF93DF93EC0181E0888F2F
:102390009B8D8C8D981305C0E889F989808185FD16
:1023A00024C0F62E0B8D10E00F5F1F4F0F73112707
:1023B000E02E8C8DE8120CC00FB607FCFACFE8892E
:1023C000F989808185FFF5CFCE010E949E11F1CF62
:1023D0008B8DFE01E80FF11DE35AFF4FF0820B8F4A
:1023E000EA89FB898081806207C0EE89FF8960836A
:1023F000E889F98980818064808381E090E0DF91C1
:10240000CF911F910F91FF90EF900895CF93DF939D
:10241000EC01888D8823C9F0EA89FB89808185FDDC
:1024200005C0A889B9898C9186FD0FC00FB607FC3D
:10243000F5CF808185FFF2CFA889B9898C9185FF7E
:10244000EDCFCE010E949E11E7CFDF91CF9108958D
:102450001F920F920FB60F9211242F933F934F9319
:102460005F936F937F938F939F93AF93BF93EF93FC
:10247000FF938091B900887F803609F49CC068F58D
:10248000883209F45BC090F4803109F454C038F408
:10249000882309F4F6C0883009F44DC0F6C08831AD
:1024A00009F44CC0803209F45DC0EFC0803409F4F7
:1024B00068C048F4803309F455C0883309F0E5C09A
:1024C00080934004D8C0803509F44FC0883509F4A2
:1024D0005DC0883409F0D9C0D6C0883909F4C7C0B6
:1024E000A8F4883709F467C038F4883609F463C063
:1024F000803709F460C0C9C0883809F4B8C0803991
:1025000009F45FC0803809F0C0C05BC0803B09F4AB
:1025100086C038F4803A09F466C0883A09F47FC06E
:10252000B4C0803C09F4A7C0883C09F4A4C0883B2F
:1025300009F48AC0AAC080913D0410C090913F0464
:1025400080913E04981770F5E0913F0481E08E0F72
:1025500080933F04F0E0E45EFB4F80818093BB00FA
:1025600085EC86C0809340048EC0E0913F0481E0FA
:102570008E0F80933F048091BB00F0E0E45EFB4F40
:10258000808390913F0480913E046EC0E0913F04AF
:1025900081E08E0F80933F048091BB00F0E0E45E09
:1025A000FB4F80838091410481116DC081E0809355
:1025B0003C0484EA61C083E0809342041092980650
:1025C000CFCF80919806803208F051C0E0919806F4
:1025D00081E08E0F809398068091BB00F0E0E85870
:1025E000F94F8083BDCF85EC8093BC0010924204EC
:1025F00080919806803230F4E0919806F0E0E85837
:10260000F94F10826091980670E0E0917606F091A3
:10261000770688E796E009951092980636C084E020
:10262000809342041092750610927406E09172062F
:10263000F0917306099580917406811105C081E0BF
:102640008093740610925206E091750681E08E0F19
:1026500080937506F0E0EE5AF94F80818093BB00BD
:102660009091750680917406981708F479CF85E8E3
:102670008093BC000AC085EC8093BC001092420499
:1026800004C0109240040E948A11FF91EF91BF9103
:10269000AF919F918F917F916F915F914F913F91FA
:1026A0002F910F900FBE0F901F90189540917406B8
:1026B000262F30E0240F311D21323105DCF420912A
:1026C00042042430C9F4FC0180E090E0861758F4FD
:1026D000309174062191DC01AE5AB94FA30FB11DA0
:1026E0002C930196F3CF80917406680F6093740663
:1026F00080E0089581E0089582E0089510924204F8
:1027000081E08093410410923C0461E082E10E94E8
:10271000B31661E083E10E94B316E9EBF0E080813B
:102720008E7F808380818D7F808388E48093B80052
:1027300085E48093BC000895DC011896ED91FC912E
:10274000199720E030E040E069E10994DC01189637
:10275000ED91FC91199720E030E040E068E10994A8
:10276000CF93DF931F92CDB7DEB76983BE016F5F52
:102770007F4F0E9481160F90DF91CF9108954F9265
:102780005F926F927F928F929F92AF92BF92CF9201
:10279000DF92EF92FF920F931F93CF93DF931F92DD
:1027A000CDB7DEB72C01E62EF42E8901FC01EC5AE0
:1027B000FF4F80818130C9F070F0823001F18330A9
:1027C00039F5F201EA5BFF4F0190F081E02DC20183
:1027D0000995E80E1DC0F201EA5BFF4F0190F08100
:1027E000E02DC2010995F80E13C0F201EA5BFF4F1C
:1027F0000190F081E02DC2010995E81A09C0F201AB
:10280000EA5BFF4F0190F081E02DC2010995F81AB3
:10281000F201E65BFF4FE0823196F08237978081CC
:10282000918147960F3F110509F020F501361105FA
:1028300010F0B49606C00134110538F0F201EA59DF
:10284000FF4F20813181820F931F9C012F5F3F4FEB
:10285000F9014491442309F4FAC0FC01449150E089
:102860004017510711F4029623C0F9012491820FF9
:10287000911DEBCFF201E659FF4F20813181820F8C
:10288000931FFC01449150E0542F44273196E4916A
:102890004E2B4115510509F4DAC04017510711F4C8
:1028A000039606C0FC013296E4918E0F911DE9CF8C
:1028B000009709F4CCC07201F8E4EF0EF11CF701A7
:1028C00091838083108671966081C7010E94C40A3B
:1028D000F701868372966081C7010E94C40AB82EF0
:1028E000F70187836201F1E7CF0ED11CF6019081D9
:1028F000F701928781E0911180E0F7018387F2016F
:10290000E55AFF4F1081612FC7010E94C40A9FEF53
:10291000910F01E010E0980101C0220F9A95EAF7AB
:10292000782E721AF201E45AFF4FA0806A2DC70177
:102930000E94C40AAA94480101C0880CAA94EAF72C
:102940006B2C680EF201E35AFF4FA0806A2DC7017D
:102950000E94C40AAA9401C0000FAA94EAF7A82E04
:10296000A01AF701068110160CF072C09485861823
:10297000292F482D672D828199830E94AA0A182F3A
:10298000F70182839981292F482D672D83810E9429
:10299000B70A482FF70183839981913091F060F055
:1029A0009230A1F09330E9F4212F2B0D801B01E030
:1029B000040F41E0480F17C0212F200F082F0B0DE7
:1029C00012C09B1921E0210F080F09C081E0982F48
:1029D000901B21E0210F8B1901E0040F480F190F04
:1029E00002C0082F212F612FC2010E94670B88238C
:1029F00079F1F701148215828201095A1F4F4201B1
:102A0000F8E58F0E911CF8016081C7010E94C40A8D
:102A1000682EF4016081C7010E94C40A782E40E04C
:102A2000662DC2010E94990B41E0672DC2010E94F0
:102A3000990B61E0C7010E94C40A8111F0CFF70130
:102A400085818B1504F38285F601808301C0A12C5A
:102A50008A2D0F90DF91CF911F910F91FF90EF90F2
:102A6000DF90CF90BF90AF909F908F907F906F90AE
:102A70005F904F900895833081F028F4813099F071
:102A80008230A1F008958730A9F08830B9F0843001
:102A9000D1F4809180008F7D03C0809180008F777A
:102AA00080938000089584B58F7702C084B58F7DB0
:102AB00084BD08958091B0008F7703C08091B000ED
:102AC0008F7D8093B00008953FB7F89480919E0663
:102AD00090919F06A091A006B091A10626B5A89B53
:102AE00005C02F3F19F00196A11DB11D3FBFBA2FA0
:102AF000A92F982F8827820F911DA11DB11DBC0100
:102B0000CD0142E0660F771F881F991F4A95D1F7C4
:102B10000895CF92DF92EF92FF920F931F93CF937E
:102B2000DF936C017A018B01C0E0D0E0CE15DF05A8
:102B300089F0D8016D918D01D601ED91FC91019044
:102B4000F081E02DC6010995892B11F47E0102C0A8
:102B50002196ECCFC701DF91CF911F910F91FF908C
:102B6000EF90DF90CF900895EF92FF920F931F9315
:102B7000CF93DF93EC01142F79016D30A9F118F494
:102B80006B3039F15FC06E3009F441C06F3009F02D
:102B900059C00E94FC0AF70183810889F8E08F9FE1
:102BA000000D112460E4CE010E94190B602F629584
:102BB0006F706061CE010E94190B602F6F70CE01A3
:102BC0000E940F0BF7016481606BCE010E940F0B16
:102BD00029C0411103C063EB71E002C06EEA71E0ED
:102BE000CE010E94FC0B71C0411108C067EA71E080
:102BF0000E94FC0BE881F981828907C060EA71E0DC
:102C00000E94FC0BE881F9818389888B5EC00E9459
:102C1000FC0A61E8CE010E94190B612FCE010E94CF
:102C20000F0B0CC0F701408151816281660F660F66
:102C3000660FCE010E94060B1150A1F7CE010E9433
:102C4000F20A43C0693031F48DEE91E099838883B4
:102C5000188A3BC06A30B9F5EA85FB8520E030E090
:102C600040E068E2CE010995EE81FF8120E030E08E
:102C700040E064E1CE01099541E06BE4CE010E94A1
:102C8000F40BE881F981448169E2CE010E94F40BE2
:102C900040E06BE4CE010E94F40BE881F9814481AD
:102CA00069E2CE010E94F40B41E06BE4CE010E9488
:102CB000F40BE881F981458169E2CE010E94F40BB1
:102CC00068EB71E08DCF80E001C081E0DF91CF91B2
:102CD0001F910F91FF90EF9008950E94993085E623
:102CE00094E00E94741121E0892B09F420E0822FE6
:102CF00008952EE138E030935205209351050C944D
:102D000015119B01DC011896ED91FC91199741E09A
:102D100067E10994CF93DF93282F30E0F901E95858
:102D2000F34F8491F901ED59F34FD491F901E15B2F
:102D3000F34FC491CC2391F081110E943B15EC2FED
:102D4000F0E0EE0FFF1FEB5BF34FA591B491EC9118
:102D5000ED2381E090E021F480E002C080E090E08B
:102D6000DF91CF9108951F93CF93DF93282F30E009
:102D7000F901E958F34F8491F901ED59F34FD491DA
:102D8000F901E15BF34FC491CC23C9F0162F8111F7
:102D90000E943B15EC2FF0E0EE0FFF1FE55CF34FB8
:102DA000A591B4918FB7F894111105C09C91ED2FA6
:102DB000E095E92302C0EC91ED2BEC938FBFDF91FE
:102DC000CF911F910895CF93DF9390E0FC01ED59CF
:102DD000F34F2491FC01E15BF34F8491882361F16F
:102DE00090E0880F991FFC01EF5CF34FC591D491DF
:102DF000FC01E55CF34FA591B491611109C09FB747
:102E0000F8948881209582238883EC912E230BC02F
:102E1000623061F49FB7F8943881822F80958323C4
:102E20008883EC912E2B2C939FBF06C08FB7F8940C
:102E3000E8812E2B28838FBFDF91CF9108958230B8
:102E4000910538F0880F991F880F991F05970197F2
:102E5000F1F708958F929F92AF92BF92CF92DF9237
:102E6000EF92FF926B017C010E9464154B015C01A3
:102E7000C114D104E104F104F1F00E946415DC01F5
:102E8000CB0188199909AA09BB09883E9340A1057D
:102E9000B10570F321E0C21AD108E108F10888EE0B
:102EA000880E83E0981EA11CB11CC114D104E1045A
:102EB000F10419F7DDCFFF90EF90DF90CF90BF9036
:102EC000AF909F908F9008952FB7F89460919A06D5
:102ED00070919B0680919C0690919D062FBF08954E
:102EE0001F920F920FB60F9211242F933F938F933F
:102EF0009F93AF93BF9380919A0690919B06A09168
:102F00009C06B0919D063091990623E0230F2D3742
:102F100020F40196A11DB11D05C026E8230F0296DD
:102F2000A11DB11D2093990680939A0690939B064C
:102F3000A0939C06B0939D0680919E0690919F065B
:102F4000A091A006B091A1060196A11DB11D80938C
:102F50009E0690939F06A093A006B093A106BF91F2
:102F6000AF919F918F913F912F910F900FBE0F9036
:102F70001F9018951F920F920FB60F9211242F9346
:102F80003F934F935F936F937F938F939F93AF93F1
:102F9000BF93EF93FF9385E694E00E949E11FF910B
:102FA000EF91BF91AF919F918F917F916F915F91C1
:102FB0004F913F912F910F900FBE0F901F9018953A
:102FC0001F920F920FB60F9211242F938F939F93FE
:102FD000EF93FF93E0917504F09176048081E09186
:102FE0007B04F0917C0482FD12C0908180917E046C
:102FF0008F5F8F7320917F04821751F0E0917E04E0
:10300000F0E0EB59FB4F958F80937E0401C08081E7
:10301000FF91EF919F918F912F910F900FBE0F9085
:103020001F901895DC01ED91FC910190F081E02D4D
:1030300009946115710579F0FB0101900020E9F711
:103040003197AF01461B570BDC01ED91FC910280DB
:10305000F381E02D099480E090E008954F925F9213
:103060006F927F92EF92FF920F931F93CF93DF9314
:10307000CDB7DEB7A1970FB6F894DEBF0FBECDBFB8
:103080007C01FA01CB0119A2223008F42AE08E015A
:103090000F5D1F4F422E512C612C712CBF01A301DB
:1030A00092010E94182FF901CA01015011096A30DA
:1030B00014F4605D01C0695CD8016C93232B242B50
:1030C000252B61F7B801C7010E941918A1960FB608
:1030D000F894DEBF0FBECDBFDF91CF911F910F914E
:1030E000FF90EF907F906F905F904F9008954F9278
:1030F0005F926F927F928F929F92AF92BF92CF9288
:10310000DF92EF92FF92CF93DF93EC016A017B0194
:10311000B22E9A01AB01C701B6010E946330882329
:1031200019F064EC72E027C026013701E89477F8C3
:103130002FEF3FEF4FE75FE7C301B2010E9463301B
:1031400081110DC02FEF3FEF4FE75FE7C301B201E1
:103150000E94C22D18161CF468EC72E00CC02FEF10
:103160003FEF4FE75FE4C701B6010E945E301816DB
:103170009CF46CEC72E0CE01DF91CF91FF90EF9068
:10318000DF90CF90BF90AF909F908F907F906F9087
:103190005F904F900C9419182FEF3FEF4FE75FECC3
:1031A000C701B6010E94C22D87FDE3CF20E030E0C9
:1031B000A901C701B6010E94C22D87FF0AC06DE2B6
:1031C000CE010E9412184C01F7FAF094F7F8F0942F
:1031D00002C0812C912CA12C60E070E080E09FE384
:1031E000AB1441F020E030E040E251E40E94B62F01
:1031F000A394F6CF9B01AC01C701B6010E944A2FF0
:103200002B013C010E942F306B017C010E94C72DD5
:103210009B01AC01C301B2010E94492F2B013C016B
:103220002AE0B701A601CE010E942E187C01E80C0D
:10323000F91CBB2031F06EE2CE010E941218E80E9C
:10324000F91EDB2CDD2029F120E030E040E251E4E2
:10325000C301B2010E94282E2B013C010E942F3095
:103260004B01A12CB12C2AE0B501A401CE010E9492
:103270002E18E80EF91EC501B4010E94C72D9B014E
:10328000AC01C301B2010E94492F2B013C01DA9429
:10329000D9CFC701DF91CF91FF90EF90DF90CF9012
:1032A000BF90AF909F908F907F906F905F904F9066
:1032B000089560ED72E00C941918CF92DF92EF92AE
:1032C000FF920F931F93CF93DF93EC0141155105AC
:1032D00039F4E881F9810190F081E02D099523C04E
:1032E0006B01770FEE08FF084A305105B1F4F7FE85
:1032F00012C06DE20E9412188C0144275527BA01B2
:103300004C195D096E097F092AE0CE010E942E1832
:10331000080F191F09C02AE001C0242FB701A60118
:10332000CE010E942E188C01CE010E945919800FE7
:10333000911FDF91CF911F910F91FF90EF90DF9040
:10334000CF900895EF92FF920F931F93CF93DF9347
:103350008C017B01C0E0D0E0F701EC0FFD1F649110
:10336000662361F0D801ED91FC910190F081E02D90
:10337000C8010995892B11F02196EECFC8010E9452
:1033800059198C0F9D1FDF91CF911F910F91FF90C5
:10339000EF9008950C941918CF93DF93CDB7DEB753
:1033A000C158D1090FB6F894DEBF0FBECDBF7894D7
:1033B00084B5826084BD84B5816084BD85B582603A
:1033C00085BD85B5816085BD80916E0081608093EB
:1033D0006E00109281008091810082608093810054
:1033E0008091810081608093810080918000816064
:1033F000809380008091B10084608093B1008091BF
:10340000B00081608093B00080917A0084608093E6
:103410007A0080917A00826080937A0080917A00AD
:10342000816080937A0080917A00806880937A002E
:103430001092C1000FB6F894A89580916000886141
:1034400080936000109260000FBEE0917504F091CF
:10345000760482E08083E0917104F091720410821E
:10346000E0917304F091740480E1808310927D04F4
:10347000E0917904F0917A0486E08083E09177040A
:10348000F0917804808180618083E0917704F091ED
:103490007804808188608083E0917704F0917804DB
:1034A000808180688083E0917704F0917804808146
:1034B0008F7D808383E080935D010E94DD1060E05A
:1034C00082E00E94E3161092E00283E896E0909377
:1034D000D5028093D40281E090E09093DF02809344
:1034E000DE0280E490E0909301018093000110924D
:1034F0006F001092800081E8809381008BE39CE351
:103500009093DD028093DC0262E088E00E94E31683
:1035100061E089E00E94B31661E089E00E94E31651
:103520001092DB021092DA021092D9021092D802A5
:103530001092D7021092D60280E286BB80936F0071
:103540008CED95E0A0E0B0E08093CA059093CB05A8
:10355000A093CC05B093CD056FE871E085E694E0CB
:103560000E94A21985E092E0909332058093310584
:1035700000912E0510912F05D8018D919C911197E6
:1035800012962D913C9113978217930719F061E0E1
:103590000E94E316F80182819381208131812817EE
:1035A000390719F061E00E94E316FFB6F8948091A4
:1035B000E102811127C0E9E5FCE08491EDE6FCE041
:1035C0009491E82FF0E0EE0FFF1FEF5CF34FA59111
:1035D000B491EC91E92321F461E08AE00E94B316F2
:1035E00061E08AE00E94E3168CB580618CBD8CB5E9
:1035F00080648CBD61E08DE00E94E31661E08BE0A9
:103600000E94E3168091E1028F5F8093E102FFBE8A
:1036100060E0C8010E944A0C61E0C8010E94560C9B
:1036200065E070E080E090E00E942A174CE060E0E6
:10363000C8010E94180E4FE564E0C8010E94180EF0
:1036400062E070E0C8010E94960E882321F081E0BC
:10365000D80116968C9366E0C8010E94750E60E052
:1036600070E0C8010E94960EC8010E946E0C80E5B1
:103670000E94FE0D83E70E94FE0D61E0C8010E94DA
:10368000560C40E06DE1C8010E94180E40E06CE16C
:10369000C8010E94180EF801108640E767E0C801D3
:1036A0000E94180E4CE465E0C8010E94180EC80183
:1036B0000E946E0C82EE0E94FE0D61E0C8010E9425
:1036C000560CC8010E94050EC8010E94D10E60E090
:1036D000C8010E94750E482F4E7F60E0C8010E940D
:1036E000180E40E061E080912E0590912F050E9418
:1036F000180E60E070E080912E0590912F050E94D9
:10370000960E00912E0510912F0560E0C8010E94D1
:10371000750E482F477F60E0C8010E94180EE091A7
:103720003005F0E0EF59FE4F40814E3708F04DE78D
:1037300065E080912E0590912F050E94180E40E0C3
:1037400064E080912E0590912F050E94180E009143
:103750002E0510912F0566E0C8010E94750E482FB6
:10376000476066E0C8010E94180E00912E05109176
:103770002F0542E063E0C8010E94180E84E0D801E2
:103780001E968C9300912E0510912F05F1E7CF2EF8
:103790006196CFAE6197A1E9DA2E6296DFAE6297AD
:1037A000BDE7EB2E6396EFAE63978BE6F82E64963B
:1037B000FFAE649765961FAE659766961FAE6697D7
:1037C00067961FAE679768961FAE6897F8014685A3
:1037D00050E0BE01605B7F4FC80109960E949E3099
:1037E000EEE6F0E06491D8011E962C91AE01405BAC
:1037F0005F4FC8010E943D0EE8E6F0E06491F801D9
:103800004781C8010E94180E62E0C8010E94750E2F
:10381000ECE0F3E0E49141E050E001C0440FEA95B0
:10382000EAF7482B62E0C8010E94180E00912E05AD
:1038300010912F052996CFAE29972A96DFAE2A97A9
:103840002B96EFAE2B972C96FFAE2C972D961FAE96
:103850002D972E961FAE2E972F961FAE2F97609600
:103860001FAE6097D8011E962C91AE01485B5F4F4A
:103870006AE0C8010E943D0EF8012685AE01485B52
:103880005F4F60E1C8010E943D0ED80117964C9130
:1038900061E1C8010E94180E80912E0590912F05BC
:1038A0000E94D10E0E94CC1099E288E10FB6F894E4
:1038B000A895809360000FBE90936000E09153053F
:1038C000F091540520E030E040E06AE08FE495E0BC
:1038D00009958FE495E00E94510B8FE495E00E94DA
:1038E000230B8111FACFE0915305F091540520E0AC
:1038F00030E040E06BE08FE495E0099589ED97E0DA
:103900009093C3058093C20580919305909194058F
:103910008A55934009F4A8C0EAE5F3E0F0939405D2
:10392000E0939305E491E093A405EBE5F3E0E491E3
:10393000E093A505ECE5F3E0E491E093A605EDE561
:10394000F3E0E491E093A705EEE5F3E0E491E09382
:10395000A805EFE5F3E0E491E093A905E0E6F3E0E4
:10396000E491E093AA05E1E6F3E0E491E093AB058E
:10397000E2E6F3E0E491E093AC05E3E6F3E0E49102
:10398000E093AD05E4E6F3E0E491E093AE05E5E60F
:10399000F3E0E491E093AF05E6E6F3E0E491E09331
:1039A000B005E7E6F3E0E491E093B105E8E6F3E083
:1039B000E491E093B205E9E6F3E0E491E093B30526
:1039C000EAE6F3E0E491E093B40581E10E94BF10E0
:1039D0009093B6058093B50583E10E94BF10909344
:1039E000B8058093B70585E10E94BF109093BA0592
:1039F0008093B9058091930590919405892BA1F14D
:103A00008091B1058093BC054091B2054093BD05FE
:103A10009091BB05992341F1913069F49091B305E0
:103A2000891714F49093BC058091B4058417E4F4CD
:103A30008093BD0519C03091AE052091B005082EC8
:103A4000000C990B622F022E000C770B630F711D77
:103A500037FD7A95861797071CF4320F3093BC0513
:103A6000241714F42093BD051092BB058091930593
:103A700090919405892B41F08091B1058093BC050C
:103A80008091B2058093BD0581E00E94B91086E95E
:103A900091E190939605809395051092A3058FE48C
:103AA00095E00E94510B0BE224E642E16AE18FE4CB
:103AB00095E00E94670B81110BC08FE495E00E9496
:103AC000230B8111F0CFFF24F394E6E7EE2EC5C05F
:103AD00074E7E72E70E0F72E12E197014AE4612FB8
:103AE0008AE10E947210EAE0EE0EF11C1F5F1B32A9
:103AF000A1F7E3CF8A8190E0982F88272981822B34
:103B00009093D8038093D7038C8190E0982F8827D7
:103B10002B81822B9093DA038093D9038E8190E0DE
:103B2000982F88272D81822B9093DC038093DB03D1
:103B3000888590E0982F88272F81822B9093DE0331
:103B40008093DD038A8590E0982F88272985822B32
:103B50009093E0038093DF038C8590E0982F882773
:103B60002B85822B9093E2038093E1038E8590E076
:103B7000982F88272D85822B9093E4038093E3036D
:103B8000888990E0982F88272F85822B9093E603D1
:103B90008093E5038A8990E0982F88272989822BD2
:103BA0009093E8038093E7038C8990E0982F88270F
:103BB0002B89822B9093EA038093E9038E8990E00E
:103BC000982F88272D89822B9093EC038093EB0309
:103BD000888D90E0982F88272F89822B9093EE0371
:103BE0008093ED03898D8093EF038B8D90E0982F68
:103BF00088272A8D822B9093F1038093F0038C8D7C
:103C00008093F2032E8D322F3F708D8DF0E18F9FC8
:103C1000C0011124832B9093F4038093F303229526
:103C20002F708F8D00E1809FC0011124822B909313
:103C3000F6038093F50388A18093F703103209F40B
:103C400091C06EE671E085E694E00E94A21964E6F8
:103C500070E080E090E00E942A17109244041092D5
:103C600043041092F90310921B040E947E1365E036
:103C700082EF0E94591067EB84EF0E94591060EAAE
:103C800085EF0E945910F092F803E0921A04109206
:103C9000F90310921B0488E890E00E9454100E94DF
:103CA000F70F88E190E00E94AE0F80E0209143047E
:103CB00090914404082F10E0DD24D394D80E2917E6
:103CC00069F082E095E00E94AE08E1E0F0E0EC0FE0
:103CD000FD1FE00FF11F80838D2DE8CFF092F803D8
:103CE000E0921A041092F90310921B0481EA90E00A
:103CF0000E9454100E94F70F81E090E00E94AE0FE6
:103D000082E095E00E94AE08E1E0F0E0EC0FFD1FDC
:103D1000E00FF11F80831D2DF092F803E0921A044A
:103D20001092F90310921B0481EE90E00E9454104F
:103D30000E94F70F87E090E00E94AE0F909143043D
:103D400080914404981709F4D5CE82E095E00E9452
:103D5000AE08E1E0F0E0EC0FFD1FE10FF11D808304
:103D60001F5FECCF8E010F5F1F4F6C961FAF0EAF22
:103D70006C9709E210E00C0F1D1F035E1F4FC25825
:103D8000DF4F19830883CE57D0406B961FAD6B97DA
:103D9000145FC058DF4F1883C058D04082E00E94A3
:103DA0008A16EA969FAF8EAFEA9785E694E00E9466
:103DB0007411892B29F185E694E00E945211843414
:103DC00031F481E08093040310925C0117C08334C6
:103DD00071F41092040310925C018091030381112D
:103DE0000FC081E0809303038093020309C08235F2
:103DF00039F41092040381E080935C011092030374
:103E000081E08093F80386E780931A041092F90307
:103E100010921B0487EF90E00E9454100E94F70F4D
:103E200088E090E00E94AE0F8E010F5F1F4F9091CF
:103E3000430480914404981779F082E095E00E9451
:103E4000AE08092E000CAA0BBB0BF80181939193CD
:103E5000A193B1938F01EBCF8D819E81AF81B88506
:103E6000AC01BD01A4E0440F551F661F771FAA9542
:103E7000D1F789819A81AB81BC811CE0880F991FA1
:103E8000AA1FBB1F1A95D1F7842B952BA62BB72BF6
:103E900049855A856B857C8504E0769567955795AD
:103EA00047950A95D1F78C019D01042B152B262BE4
:103EB000372BA0960CAF1DAF2EAF3FAFA09700934E
:103EC000CF031093D0032093D1033093D203898979
:103ED0009A89AB89BC89AC01BD0184E0440F551FB0
:103EE000661F771F8A95D1F78D859E85AF85B88926
:103EF0002CE0880F991FAA1FBB1F2A95D1F7842B8E
:103F0000952BA62BB72B4D895E896F89788D34E070
:103F100076956795579547953A95D1F7482B592B44
:103F20006A2B7B2B4093CB035093CC036093CD0340
:103F30007093CE03C98CDA8CEB8CFC8CFE2CED2CB0
:103F4000DC2CCC248D8D9E8DAF8DB8A19701860180
:103F5000082B192B2A2B3B2BAC960CAF1DAF2EAF89
:103F60003FAFAC970093C7031093C8032093C903D6
:103F70003093CA038091D7039091D803A0E0B0E0BA
:103F80006A017B01F4E0F594E794D794C794FA951D
:103F9000D1F7C81AD90AEA0AFB0A13E075956795A2
:103FA000579547951A95D1F7880F991FAA1FBB1FE0
:103FB0009A01AB01281B390B4A0B5B0BA091D9036B
:103FC000B091DA030E94102F2B013C018BE0759415
:103FD0006794579447948A95D1F7A7019601C70132
:103FE000B6010E9468309B01AC019CE05595479555
:103FF000379527959A95D1F7A091DB03B091DC0313
:104000000E94102F4B015C012EE0B594A794979469
:1040100087942A95D1F7A3019201280D391D4A1DD5
:104020005B1DA4962CAF3DAF4EAF5FAFA49720931E
:10403000D3033093D4034093D5035093D603A5E024
:10404000B0E00E94052FDC01CB0180589F4FAF4F9D
:10405000BF4F692F7A2F8B2F992787FD9A950E9442
:10406000C92D20E030E048EC52E40E94B62FA8961B
:104070006CAF7DAF8EAF9FAFA897A4968CAC9DAC74
:10408000AEACBFACA497B594A794979487943AEF3D
:10409000931AA108B108C501B40152E0959587951E
:1040A000779567955A95D1F79B01AC010E946830CE
:1040B0002B013C01E091E703F091E8030091E50357
:1040C0001091E6032090E3033090E403A091E10314
:1040D000B091E2039B01AC016DE055954795379592
:1040E00027956A95D1F70E94102F6B017C0173E030
:1040F000F594E794D794C7947A95D1F7A091DF030C
:10410000B091E003A50194010E94102FDC01CB01C6
:10411000B595A795979587958C0D9D1DAE1DBF1DD7
:1041200032E1B595A795979587953A95D1F79C017A
:10413000AD0130584F4F5F4FA091DD03B091DE03CA
:104140000E94052F6B017C014FE0F594E794D79412
:10415000C7944A95D1F7C114D104E104F10409F4DC
:10416000C4C0A3019201BBE05595479537952795AB
:10417000BA95D1F7DF010E94102F2B013C01D80125
:10418000A50194010E94102FDC01CB01880F991F1B
:10419000AA1FBB1F480E591E6A1E7B1ED301C201F7
:1041A00002E0B595A795979587950A95D1F7A096C2
:1041B0004CAD5DAD6EAD7FADA0977095609550959F
:1041C00041955F4F6F4F7F4F8101330C220B330BB3
:1041D000980111270027800F911FA21FB31FFCE039
:1041E000B595A79597958795FA95D1F79A01AB0163
:1041F000281B390B4A0B5B0BA5E3BCE00E94052F83
:10420000805B9C4397FD0BC0660F771F881F991F2B
:10421000A70196010E94182F69017A010AC0A7011F
:1042200096010E94182F69017A01CC0CDD1CEE1C4E
:10423000FF1CC701B60103E09695879577956795B2
:104240000A95D1F7E091ED03F091EE039B01AC01EB
:104250000E9468309B01AC018DE0569547953795DB
:1042600027958A95D1F7DF010E94102F4B015C0141
:104270009CE0B594A794979487949A95D1F7A70159
:10428000960162E056954795379527956A95D1F73F
:10429000A091EB03B091EC030E94102FDC01CB0145
:1042A0007DE0B595A795979587957A95D1F7880E76
:1042B000991EAA1EBB1E8091E9039091EA03092E64
:1042C000000CAA0BBB0B880D991DAA1DBB1DE4E0B9
:1042D000B595A79597958795EA95D1F7BC01CD013E
:1042E0006C0D7D1D8E1D9F1D03C060E070E0CB0135
:1042F0000E94C72D20E030E048EC52E40E94B62F27
:10430000A0966CAF7DAF8EAF9FAFA097A4968CACFC
:104310009DACAEACBFACA4974CE2941A41E0A40AA9
:10432000B108AC96CCACDDACEEACFFACAC978EE09B
:10433000CC0CDD1CEE1CFF1C8A95D1F78091F30399
:104340009091F403092E000CAA0BBB0B24E1880FFB
:10435000991FAA1FBB1F2A95D1F7C81AD90AEA0AC2
:10436000FB0AA091F503B091F603A50194010E9408
:10437000102FC61AD70AE80AF90A50E4D50EE11C34
:10438000F11C3FE0F594E794D794C7943A95D1F7A0
:10439000A091F7030A2E000CBB0BA50194010E940B
:1043A000102F2B013C016AE0759467945794479451
:1043B0006A95D1F7A091F2030A2E000CBB0B0E9464
:1043C000102FDC01CB017BE0B595A79597958795DC
:1043D0007A95D1F7BC01CD0170588F4F9F4FA30143
:1043E00092010E946830DC01CB01EAE0B595A79507
:1043F00097958795EA95D1F79C01AD01405E5F4F97
:10440000A091F003B091F1030E94102FDC01CB01C9
:10441000905EAF4FBF4FBC01CD01FEE095958795F3
:1044200077956795FA95D1F7A70196010E946830B4
:104430006B017C01AFE09595879577956795AA9577
:10444000D1F79B01AC010E9468309B01AC01B7E041
:104450005595479537952795BA95D1F7A091EF03D4
:104460000A2E000CBB0B0E94102FDC01CB0114E0C4
:10447000B595A795979587951A95D1F7C81AD90A32
:10448000EA0AFB0AF7FE03C0C12CD12C7601D70142
:10449000C601E1E0CE16D104E104E9E1FE0624F014
:1044A00080E090E0A0E0B9E1BC01CD010CE0959581
:1044B0008795779567950A95D1F70E94C72D20E0DB
:1044C00030E040E85AE30E94282E4B015C0182E470
:1044D0006A968FAF6A970E94210F97FD06C08234BB
:1044E0009105C9F780E090E002C08FEF9FEF892B24
:1044F00059F0612C712C412C512C212C312CA2967D
:104500001FAE1EAEA29739C18E01075D1F4F680115
:10451000FFE1CF0ED11C78010E94210F97FF06C04A
:1045200089A58D3431F720E030E007C0D7018D93A5
:104530007D01AC15BD0581F7F3CFF80181918F01A5
:10454000280F311DC258DF4F48815981CE57D040C6
:10455000E417F50791F72E5B3F4F27968FAD27970E
:1045600090E0982F882728964FAD2897840F911DAB
:104570002817390709F0BDCF8AA990E0982F88271E
:104580002BA98C01020F111DA2961FAF0EAFA2978F
:104590002CA8312C322C22248DA9280E311C8EA956
:1045A00090E0982F88272FA92C01420E511CB101B1
:1045B000032C000C880B990B0E94C92DAC966CAF94
:1045C0007DAF8EAF9FAFAC9708E011E0612C712CEE
:1045D000D801CD90DD90ED90FC90AC962CAD3DAD2A
:1045E0004EAD5FADAC97C701B6010E94C22D181643
:1045F00084F1D80114962D913D914D915C911797BE
:10460000E0962CAF3DAF4EAF5FAFE097AC962CADD0
:104610003DAD4EAD5FADAC97E0966CAD7DAD8EAD72
:104620009FADE0970E945E3087FD13C0F301EE0F4F
:10463000FF1FEE0FFF1FE05CFE4F00811181F301B1
:10464000EE0FFF1FEE0FFF1FE85FFE4F62AD73AD71
:1046500017C0BFEF6B1A7B0A085F1F4FE7E06E16AB
:10466000710409F0B5CFE0961CAE1DAE1EAE1FAEB4
:10467000E097C12CD12C760160E070E000E010E002
:10468000601B710B072E000C880B990B0E94C92D23
:10469000EE966CAF7DAF8EAF9FAFEE97A701960100
:1046A000E0966CAD7DAD8EAD9FADE0970E94492F39
:1046B0009B01AC01EE966CAD7DAD8EAD9FADEE97DE
:1046C0000E94B62FE0966CAF7DAF8EAF9FAFE097A4
:1046D000A7019601AC966CAD7DAD8EAD9FADAC974C
:1046E0000E94492F9B01AC01E0966CAD7DAD8EAD73
:1046F0009FADE0970E94282E0E9428303801660E58
:10470000771E809104038823C1F16FE971E085E68B
:1047100094E00E94A2198E01055D1F4F21E0622FD7
:1047200085E694E0CF57DF4F2883C158D0400E94E0
:104730005E0F62EC72E085E694E00E94CA19F8010F
:104740003197608170E0762F6627D8018C91680FD1
:10475000711D4AE050E085E694E00E945D19CF5754
:10476000DF4F2881C158D0402F5F0E5F1F4F20318F
:10477000B1F685E694E00E9459198091FA02811100
:104780000DC00E9464176093F6027093F702809345
:10479000F8029093F90281E08093FA020E94641774
:1047A0000091F6021091F7022091F8023091F9027F
:1047B000DC01CB01801B910BA20BB30B803D97401A
:1047C000A105B10508F406C180910403882399F07E
:1047D00069E473E085E694E00E94A21962E172E068
:1047E00085E694E00E94CA194AE050E0B30185E6EC
:1047F00094E00E945D192FE330E0D3010E948C30D9
:104800002CE231E040E050E00E94E62E022F622EC2
:10481000732E80910403882369F06BE072E085E6D3
:1048200094E00E94CA194AE050E0B30185E694E0A2
:104830000E945D198FE495E00E94510B802F1FE3C9
:10484000101B1C3308F01BE38F3308F01EEF44E00D
:10485000F42EF10E00E35AE2E52E48E152E060E06A
:1048600080E00E94791640E252E06BE080E00E9416
:10487000791648E252E066E180E00E94791640E352
:1048800052E061E280E00E94791648E352E06CE277
:1048900080E00E94791640E452E067E380E00E94E5
:1048A000791648E452E06FEF85E60E9479164DE4F0
:1048B00052E068E38FE50E9479166FE380E00E9482
:1048C000F51020E030E0A901A8966CAD7DAD8EAD6D
:1048D0009FADA8970E94C22D87FF03C0E092C40538
:1048E00002C00093C4051092C505A8964CAD5DADFD
:1048F0006EAD7FADA8978BE495E00E945B0F63E5FA
:1049000072E08BE495E00E94CA190093C4058BE025
:104910008093C505B501A4018BE495E00E945B0F6F
:1049200067E572E08BE495E00E94CA190093C40524
:1049300086E18093C505A0964CAD5DAD6EAD7FADB3
:10494000A0978BE495E00E945B0F6CE572E08BE42E
:1049500095E00E94CA190093C40581E28093C505C1
:10496000A2966EAD7FADA2978BE495E00E94780F82
:104970000093C4058CE28093C505B1018BE495E0FA
:104980000E94780F0093C40587E38093C505B201A8
:104990008BE495E00E94780F80E00E94B91062E0FD
:1049A000812F0E94F51062E08F2D0E94F51081E0AA
:1049B0000E94B9108FE495E00E94230B81114DCF26
:1049C0000E9464176093F6027093F7028093F802D6
:1049D0009093F9028091EE0281110DC00E9464173C
:1049E0006093EA027093EB028093EC029093ED02E5
:1049F00081E08093EE020E9464170091EA02109118
:104A0000EB022091EC023091ED02DC01CB01801B26
:104A1000910BA20BB30B88329342A105B10508F4A8
:104A200050C701E0EA962EAD3FADEA97232B09F47B
:104A300000E0A8958091E8029091E9026AE070E0B8
:104A40000E9478302BE2269FC001279F900D1124F1
:104A50006091E70270E00E9478307093E902609301
:104A6000E8026C3F7D4040F4011106C08091E602EF
:104A70008F5F8093E60202C01092E6028091E60208
:104A80008A3008F446C08FE495E00E94510B24E27E
:104A9000D22E37E3C32E00E32CE543E162E28FE43C
:104AA00095E00E94670B81111AC08091040388234E
:104AB00041F1D092C405C092C5054091E8025091E1
:104AC000E90260E070E02AE08BE495E00E942E1895
:104AD00061E672E08BE495E00E94CA1912C099EA7F
:104AE000E92E91E0F92E13E197014AE3612F82E26A
:104AF0000E94721048E0E40EF11C1F5F1033A1F712
:104B0000D4CF8FE495E00E94230B8111C4CFA895E8
:104B1000FECF002331F082ED94E09093E902809380
:104B2000E80280910403811112C088E26C96AEAD58
:104B3000BFAD6C971D928A95E9F789A5898382E0BC
:104B400069968FAF69978BA58A8382E030C164E64E
:104B500072E085E694E00E94CA19A8964CAD5DAD5E
:104B60006EAD7FADA89785E694E00E945B0F6BE683
:104B700072E085E694E00E94CA19A0964CAD5DAD46
:104B80006EAD7FADA09785E694E00E945B0F67E76E
:104B900072E085E694E00E94CA19B501A40185E699
:104BA00094E00E945B0F63E872E085E694E00E9467
:104BB000191885E694E00E94591966E872E085E6C6
:104BC00094E00E94CA19A2966EAD7FADA29785E6C9
:104BD00094E00E94780F6EE872E085E694E00E940F
:104BE000CA1965E972E085E694E00E94CA19B1012C
:104BF00085E694E00E94780F6EE872E085E694E026
:104C00000E94CA196EE972E085E694E00E94CA1912
:104C1000B20185E694E00E94780F6EE872E085E6C6
:104C200094E00E94191885E694E00E94591966EAFA
:104C300072E085E694E00E94CA196091E70285E679
:104C400094E00E945E0F6EEA72E085E694E00E94B6
:104C5000CA194091E8025091E90260E070E02AE050
:104C600085E694E00E942E1885E694E00E9459198A
:104C70008FE495E00E94510B16E0B4E2FB2E87E32F
:104C8000E82EC090E802D090E90220E030E0A901CF
:104C9000A8966CAD7DAD8EAD9FADA8970E94C22D3C
:104CA00087FF03C01092C40502C01093C405109280
:104CB000C505A8964CAD5DAD6EAD7FADA8978BE4F4
:104CC00095E00E945B0F63E572E08BE495E00E9443
:104CD000CA191093C405BBE0B093C505B501A40182
:104CE0008BE495E00E945B0F67E572E08BE495E052
:104CF0000E94CA191093C405E6E1E093C505A09689
:104D00004CAD5DAD6EAD7FADA0978BE495E00E949C
:104D10005B0F6CE572E08BE495E00E94CA1910937A
:104D2000C405F1E2F093C505A2966EAD7FADA297E2
:104D30008BE495E00E94780F1093C4052CE2209339
:104D4000C505B1018BE495E00E94780FF092C4058F
:104D50003CE23093C505B3018BE495E00E94780FE7
:104D60001093C405E092C505B2018BE495E00E9462
:104D7000780FF092C405E092C505B6018BE495E08A
:104D80000E94780F61E672E08BE495E00E94CA19F8
:104D9000002331F06BE472E08BE495E00E94CA19C5
:104DA0008FE495E00E94230B81116BCFBECE8A3138
:104DB00090F4282F30E0E1E0F0E0EC0FFD1FE20F6F
:104DC000F31FAAE2B0E0AC0FBD1FA20FB31F9C916E
:104DD00090838F5FECCF69968FAF6997A8962CADC3
:104DE0003DAD4EAD5FADA897BE01685A7F4FCE0175
:104DF00001960E94EA0EA5019401BE01685A7F4FF8
:104E0000CE0101960E94EA0EA0962CAD3DAD4EADAE
:104E10005FADA097BE01685A7F4FCE0101960E94F8
:104E2000EA0EFE01339685E200E010E0815091F039
:104E30009191192798E09801220F331F17FF06C0A0
:104E4000890141E2042740E1142701C08901915002
:104E500091F7ECCF69968FAD6997E1E0F0E0EC0F48
:104E6000FD1FE80FF11D108392E0980F69969FAF28
:104E700069978F5FE1E0F0E0EC0FFD1FE80FF11D97
:104E80000083983209F09FC18A81865F8A8380916E
:104E90005C01882349F048E250E0BE016F5F7F4F1C
:104EA00085E694E00E94891580910403882309F423
:104EB000FAC085E694E00E94591969EB72E085E634
:104EC00094E00E94CA19A80160E070E020E185E644
:104ED00094E00E942E1885E694E00E94591961E939
:104EE00072E085E694E00E94A21962EC72E085E629
:104EF00094E00E94CA19498150E060E070E020E12E
:104F000085E694E00E942E1885E694E00E945919E7
:104F100060E085E694E00E945E0F62EC72E085E658
:104F200094E00E94CA194A8150E060E070E02AE0F3
:104F300085E694E00E942E1885E694E00E945919B7
:104F40008E010C5F1F4F31E0632F85E694E0CF5751
:104F5000DF4F3883C158D0400E945E0F62EC72E090
:104F600085E694E00E94CA19F8013197408150E02B
:104F7000542F4427D8018C91480F511D60E070E0F8
:104F80002AE085E694E00E942E1885E694E00E94CF
:104F90005919CF57DF4F3881C158D0403F5F0E5F5E
:104FA0001F4F3D3089F66DE085E694E00E945E0F6C
:104FB00062EC72E085E694E00E94CA198B8D8093C2
:104FC000E5028C8D8093E4028D8D8093E3028E8DBB
:104FD0008093E2026091E2027091E3028091E40228
:104FE0009091E5020E94650F6EE085E694E00E94D4
:104FF0005E0F62EC72E085E694E00E94CA198F8D24
:105000008093E50288A18093E40289A18093E30262
:105010008AA18093E2026091E2027091E3028091A2
:10502000E4029091E5020E94650F6FE085E694E04E
:105030000E945E0F62EC72E085E694E00E94CA195D
:105040008BA18093E5028CA18093E4028DA18093D3
:10505000E3028EA18093E2026091E2027091E3028A
:105060008091E4029091E5020E94650F60E185E67F
:1050700094E00E945E0F62EC72E085E694E00E948C
:10508000CA194FA150E0542F442788A5480F511D3D
:1050900060E070E020E185E694E00E942E1885E64D
:1050A00094E00E94591980910203882361F085E6FB
:1050B00094E00E9459196FE972E085E694E00E943D
:1050C000A21910920203F0900303FF2009F485C097
:1050D00002E010E0E1E0F0E0EC0FFD1FE00FF11F57
:1050E000408150E0542F44278181480F511D60E0DA
:1050F00070E02AE085E694E00E942E186FEB72E0E3
:1051000085E694E00E94CA190E5F1F4F0A3111050F
:1051100009F78B8D8093E5028C8D8093E4028D8D51
:105120008093E3028E8D8093E2024091E2025091DF
:10513000E3026091E4027091E50285E694E00E944A
:105140005B0F6FEB72E085E694E00E94CA198F8DC9
:105150008093E50288A18093E40289A18093E30211
:105160008AA18093E2024091E2025091E3026091B1
:10517000E4027091E50285E694E00E945B0F6FEB1C
:1051800072E085E694E00E94CA198BA18093E50243
:105190008CA18093E4028DA18093E3028EA1809381
:1051A000E2024091E2025091E3026091E4027091C8
:1051B000E50285E694E00E945B0F85E694E00E949C
:1051C0005919F1100AC080910403882331F06CE270
:1051D00073E085E694E00E94A2198CE06C96EEAD37
:1051E000FFAD6C9711928A95E9F70091E802109152
:1051F000E90220E030E0A901A8966CAD7DAD8EAD4E
:105200009FADA8970E945E3020E030E040E05FE371
:1052100087FD09C0A8966CAD7DAD8EAD9FADA897FA
:105220000E944A2F08C0A8966CAD7DAD8EAD9FAD93
:10523000A8970E94492F0E942830F62E698320E00B
:1052400030E0A901C501B4010E945E3020E030E0E9
:1052500040E05FE387FD05C0C501B4010E944A2F0D
:1052600004C0C501B4010E94492F0E942830C62EF7
:105270006A8320E030E0A901A0966CAD7DAD8EADD3
:105280009FADA0970E945E3020E030E040E05FE3F9
:1052900087FD09C0A0966CAD7DAD8EAD9FADA0978A
:1052A0000E944A2F08C0A0966CAD7DAD8EAD9FAD1B
:1052B000A0970E94492F0E942F30E72E7B8320E089
:1052C00030E0A901A0966CAD7DAD8EAD9FADA097ED
:1052D0000E945E3020E030E040E05FE387FD09C0DF
:1052E000A0966CAD7DAD8EAD9FADA0970E944A2F6C
:1052F00008C0A0966CAD7DAD8EAD9FADA0970E940D
:10530000492F0E942F30D62E6C83A2967FACA29795
:105310007D82A196FFADA197FE833F8228865986A4
:105320004A861B870C8780910403882309F413C1E4
:1053300061E073E085E694E00E94A21960E085E6F2
:1053400094E00E945E0F62EC72E085E694E00E94B9
:10535000CA198F2CFF0C9908B40185E694E00E94CD
:10536000780F61EC72E085E694E00E94CA1940E192
:1053700050E0B40185E694E00E945D1961E085E6A5
:1053800094E00E945E0F62EC72E085E694E00E9479
:10539000CA196C2D85E694E00E945E0F61EC72E004
:1053A00085E694E00E94CA194C2D50E060E070E060
:1053B00020E185E694E00E942E1885E694E00E94A4
:1053C000591962E085E694E00E945E0F62EC72E09B
:1053D00085E694E00E94CA19F12CFE2CEE24ED0C17
:1053E000F11CB70185E694E00E94780F61EC72E051
:1053F00085E694E00E94CA1940E150E0B70185E6D5
:1054000094E00E945D1963E085E694E00E945E0FDF
:1054100062EC72E085E694E00E94CA19E2967FAEE3
:10542000E297E1961FAEE197E296EEACFFACE29711
:10543000A1962FADA197E20EF11CB70185E694E08D
:105440000E94780F61EC72E085E694E00E94CA1930
:1054500040E150E0B70185E694E00E945D1964E008
:1054600085E694E00E945E0F62EC72E085E694E0CF
:105470000E94CA19E4963FAEE497E3961FAEE39705
:10548000E496EEACFFACE497E20CF11CB70185E6C4
:1054900094E00E94780F61EC72E085E694E00E944F
:1054A000CA1940E150E0B70185E694E00E945D1919
:1054B00065E085E694E00E945E0F62EC72E085E6AE
:1054C00094E00E94CA19E6965FAEE697E5961FAE95
:1054D000E597E696EEACFFACE697E40CF11CB7015D
:1054E00085E694E00E94780F61EC72E085E694E036
:1054F0000E94CA1940E150E0B70185E694E00E949D
:105500005D1966E085E694E00E945E0F62EC72E051
:1055100085E694E00E94CA19E8961FAFE897E796DF
:105520001FAEE797E8964EAD5FADE897400F511D6F
:105530008A01BA0185E694E00E94780F61EC72E07E
:1055400085E694E00E94CA1940E150E0B80185E682
:1055500094E00E945D1983E395E00E94D10E0E94C1
:1055600064174B015C011AED00E638E8F32E0E9447
:105570006417DC01CB0188199909AA09BB09813795
:105580009741A105B10508F08AC1A895E0913105C0
:10559000F0913205DF010D900020E9F71197CD0160
:1055A0008E1B9F0B482F20910701209310052091FF
:1055B00006012093110520910501209312052091E9
:1055C00004012093130520910301209314052091D9
:1055D0000201206C2093150521E0280F2093160569
:1055E00029E02093170520E030E0241778F4D90152
:1055F000A25FBA4FE0913105F0913205E20FF31F3F
:1056000050811A965C932F5F3F4FEFCFE2E0E80F97
:10561000F0E0EA5EFA4F2DE020832FEF21833296EF
:10562000DE0111962D912193C058DF4F5881C0584B
:10563000D0405A13F7CFE0E1E80FE63108F00AC195
:1056400022E420930E0526E1280F20930F05F0E0B9
:10565000EA5EFA4F68E1680F2AEA208321832283F9
:105660002EE0622E25E0722E615088F1D3017D91EB
:105670003D01C080D180A8E0B0E02C2D2170E22E49
:105680004C2D50E055954795C42ED0FE03C0342FC5
:105690003068C32E2D2D30E035952795D22E4281CE
:1056A00040FF03C0522F5068D52E50E055954795C6
:1056B000272F2170E21202C0428303C04127428398
:1056C000D02676951197C9F6C082D182CDCF6BE1F5
:1056D000762E780EE0913005F0E0E25AFE4F208100
:1056E0002064EEE0F5E0472D415080F088E090E046
:1056F00031E050E020FF02C02F25532B2695330FB9
:105700000197C1F7808185278193EECFEEE0F5E028
:10571000272D2150A8F09081892F881F8827881F66
:1057200096FD826095FD846094FD886093FD8061A4
:1057300092FD806291FD806490FD80688193E9CF45
:10574000C0902E05D0902F0560E0C6010E944A0C43
:10575000D60150968D919C9151970E941F176DE133
:10576000C6010E94750E81FF08C0F60180899189EB
:105770000E941F17C6010E94050E60E0C6010E942C
:10578000750E482F4E7F60E0C6010E94180E62E041
:10579000C6010E94750EECE0F3E0E49141E050E0B8
:1057A00001C0440FEA95EAF7482B62E0C6010E9467
:1057B000180EC0902E05D0902F05D6011796EC90AC
:1057C000572CE71408F45E2CF6018085811102C085
:1057D000E51801C0E12CC6010E946E0C80EA0E940F
:1057E000FE0D5EE0652E55E0752E560C561431F018
:1057F000D3018D913D010E94FE0DF8CFEE2029F0DE
:1058000080E00E94FE0DEA94F9CF61E0C6010E949B
:10581000560C61E0C6010E944A0CC6010E946E0C43
:105820008FEF0E94FE0DE82E61E0C6010E94560C2B
:105830008E2D807391F360E0C6010E944A0C40E710
:1058400067E0C6010E94180E84FF0EC0C6010E94C8
:10585000050E0AC080910403882331F062E173E0F1
:1058600085E694E00E94A219809130058F5F833015
:1058700018F48093300502C010923005E091300595
:10588000F0E0EF59FE4F40814E3708F04DE765E0FC
:1058900080912E0590912F050E94180E68CE0E94CF
:1058A000CC100E9464176093EA027093EB0280931D
:1058B000EC029093ED021092E9021092E80210922D
:1058C000E7021091E7021A3040F50E94DD105C01FA
:1058D0006091E8027091E90280E090E00E94C72D9B
:1058E0006B017C01B501BB0C880B990B0E94C92D83
:1058F00020E030E849E85FE30E94282E9B01AC01DC
:10590000C701B6010E944A2F0E942F307093E9020E
:105910006093E8021F5F1093E702A8950E94801130
:105920000C94CE1E84E991E09093C7058093C60540
:1059300080916F008B7F80936F0080916F008F7DCF
:1059400080936F008091D9028093DA028091D8020F
:105950008111FCCF80916F008D7F80936F0008953F
:10596000CF93109268041092670488EE93E0A0E051
:10597000B0E08093690490936A04A0936B04B093A1
:105980006C0428E631E0309366042093650425EC2E
:1059900030E0309372042093710424EC30E03093B3
:1059A00074042093730420EC30E030937604209349
:1059B000750421EC30E0309378042093770422ECD6
:1059C00030E030937A042093790426EC30E0309371
:1059D0007C0420937B0410927E0410927F0410922A
:1059E00080041092810410920505109204058093A2
:1059F000060590930705A0930805B093090528E7CD
:105A000031E030930305209302051092C9051092EE
:105A1000C8058093CA059093CB05A093CC05B0939D
:105A2000CD0584E991E09093C7058093C605109257
:105A30004E0510924D058EE198E09093C30580933A
:105A4000C2051092C4051092C5051092640588E83D
:105A500091E090934C0580934B0510925005109265
:105A60004F0510926005109263058FEF80936105DA
:105A700080936605EAE6F5E09FEF86E18E0FCFEFB3
:105A800091938E13FCCF84EB95E190935405809312
:105A900053058FE099E090935605809355058DED61
:105AA00099E090935805809357058BE19AE0909385
:105AB0005A058093590520E030E040E069E08FE42A
:105AC00095E00E94B415109294051092930582E718
:105AD00096E0909381058093800582ED95E0909308
